{
  "contractName": "Voting",
  "abi": [
    {
      "constant": true,
      "inputs": [
        {
          "name": "",
          "type": "bytes32"
        }
      ],
      "name": "votesReceived",
      "outputs": [
        {
          "name": "",
          "type": "uint8"
        }
      ],
      "payable": false,
      "stateMutability": "view",
      "type": "function"
    },
    {
      "constant": true,
      "inputs": [
        {
          "name": "",
          "type": "uint256"
        }
      ],
      "name": "candidateList",
      "outputs": [
        {
          "name": "",
          "type": "bytes32"
        }
      ],
      "payable": false,
      "stateMutability": "view",
      "type": "function"
    },
    {
      "inputs": [
        {
          "name": "candidateNames",
          "type": "bytes32[]"
        }
      ],
      "payable": false,
      "stateMutability": "nonpayable",
      "type": "constructor"
    },
    {
      "anonymous": false,
      "inputs": [
        {
          "indexed": false,
          "name": "candidate",
          "type": "bytes32"
        }
      ],
      "name": "Test",
      "type": "event"
    },
    {
      "constant": false,
      "inputs": [
        {
          "name": "candidate",
          "type": "bytes32"
        }
      ],
      "name": "totalVotesFor",
      "outputs": [
        {
          "name": "",
          "type": "uint8"
        }
      ],
      "payable": false,
      "stateMutability": "nonpayable",
      "type": "function"
    },
    {
      "constant": false,
      "inputs": [
        {
          "name": "candidate",
          "type": "bytes32"
        }
      ],
      "name": "voteForCandidate",
      "outputs": [],
      "payable": false,
      "stateMutability": "nonpayable",
      "type": "function"
    },
    {
      "constant": true,
      "inputs": [
        {
          "name": "candidate",
          "type": "bytes32"
        }
      ],
      "name": "validCandidate",
      "outputs": [
        {
          "name": "",
          "type": "bool"
        }
      ],
      "payable": false,
      "stateMutability": "view",
      "type": "function"
    }
  ],
  "bytecode": "0x6060604052341561000f57600080fd5b604051610419380380610419833981016040528080518201919050508060019080519060200190610041929190610048565b50506100c0565b82805482825590600052602060002090810192821561008a579160200282015b82811115610089578251829060001916905591602001919060010190610068565b5b509050610097919061009b565b5090565b6100bd91905b808211156100b95760008160009055506001016100a1565b5090565b90565b61034a806100cf6000396000f30060606040526004361061006d576000357c0100000000000000000000000000000000000000000000000000000000900463ffffffff1680632f265cf714610072578063392e6678146100b35780637021939f146100f2578063b13c744b14610133578063cc9ab26714610172575b600080fd5b341561007d57600080fd5b610097600480803560001916906020019091905050610199565b604051808260ff1660ff16815260200191505060405180910390f35b34156100be57600080fd5b6100d860048080356000191690602001909190505061021d565b604051808215151515815260200191505060405180910390f35b34156100fd57600080fd5b61011760048080356000191690602001909190505061027d565b604051808260ff1660ff16815260200191505060405180910390f35b341561013e57600080fd5b610154600480803590602001909190505061029d565b60405180826000191660001916815260200191505060405180910390f35b341561017d57600080fd5b6101976004808035600019169060200190919050506102c1565b005b60006101a48261021d565b15156101af57600080fd5b7f4e7dc65936b8a618a05d1cb987cae66bcb71512492045e74e5399d251208eb7b8260405180826000191660001916815260200191505060405180910390a1600080836000191660001916815260200190815260200160002060009054906101000a900460ff169050919050565b600080600090505b60018054905081101561027257826000191660018281548110151561024657fe5b9060005260206000209001546000191614156102655760019150610277565b8080600101915050610225565b600091505b50919050565b60006020528060005260406000206000915054906101000a900460ff1681565b6001818154811015156102ac57fe5b90600052602060002090016000915090505481565b6102ca8161021d565b15156102d557600080fd5b6001600080836000191660001916815260200190815260200160002060008282829054906101000a900460ff160192506101000a81548160ff021916908360ff160217905550505600a165627a7a723058209c18c4af5769c4c75936ebd0d76b74da1f45bc303de55476caad906b921949780029",
  "source": "pragma solidity ^0.4.17;\n\ncontract Voting {\n\n  mapping (bytes32 => uint8) public votesReceived;\n\n  bytes32[] public candidateList;\n  event Test(bytes32 candidate);\n\n  function Voting(bytes32[] candidateNames) public {\n    candidateList = candidateNames;\n  }\n\n  function totalVotesFor(bytes32 candidate) public returns (uint8) {\n    require(validCandidate(candidate));\n    Test(candidate);\n    return votesReceived[candidate];\n  }\n\n  function voteForCandidate(bytes32 candidate) public {\n    require(validCandidate(candidate));\n    votesReceived[candidate] += 1;\n  }\n\n  function validCandidate(bytes32 candidate) view public returns (bool) {\n    for(uint i = 0; i < candidateList.length; i++) {\n      if (candidateList[i] == candidate) {\n        return true;\n      }\n    }\n    return false;\n  }\n}\n",
  "sourcePath": "/Users/nucool/Projects/Nida/HelloSolidity/VotingChain/contracts/Voting.sol",
  "compiler": {
    "name": "solc",
    "version": "0.4.19+commit.c4cbbb05.Emscripten.clang"
  },
  "schemaVersion": "2.0.0",
  "updatedAt": "2018-04-01T13:55:57.136Z"
}